:040000005DEF03F0BD
:1000080000C020F001C01FF002C01EF003C01DF0A8
:1000180004C01CF005C01BF008C01AF009C019F094
:100028000AC018F00BC017F00CC016F00DC015F080
:10003800E1CF23F0E2CF24F0F3CF21F0F4CF22F088
:100048009EAA03D09DAA01D0A8DA21C0F3FF22C03E
:10005800F4FF20C000F01FC001F01EC002F01DC058
:1000680003F01CC004F01BC005F01AC008F019C04A
:1000780009F018C00AF017C00BF016C00CF015C034
:0C0088000DF023C0E1FF24C0E2FF1100D6
:0E009400ACB202D00000FCD7A8C0ADFF120035
:1000A2000134083609360450085E0550D8A0053CD4
:1000B200095E003601360F0E0C6E01340836093621
:1000C200045000A006D0085E0550D8A0053C095E89
:1000D20005D008260550D8B0053C09260036013661
:1000E2000C2EEBD700B006D0045008260550D8B02D
:0800F200053C09260000120084
:1000FA00AAC004F0ABC005F0A8C002F0A9C003F082
:10010A00ACC000F0ADC001F0010E0001AC5F000E02
:10011A00AD5B005001100FE004C0E9FF05C0EAFF23
:10012A0002C0E1FF03C0E2FFEECFE6FF024A032A64
:10013A00044A052AE5D7A8C000F0A9C001F01200B8
:10014A00940E0001906F000E916FA80E926F000E30
:10015A00936FBC0E946F030E956F000E966F000E90
:10016A00976FFF0E986FFF0E996F000E9A6F000E31
:10017A009B6FFF0E9C6FFF0E9D6F000E9E6F000E11
:10018A009F6FAC8A900EAB6E948E949C9EAA03D0FD
:08019A00AECF00F0FBD712000C
:1001A2000450000A08E10550000A05E1FF0E006E46
:1001B2007F0E016E57D00D6A096A086A015000105D
:1001C200D8B4000C015005180A6E0ABE0D1E0B6A47
:1001D20005AE05D0041E051E042AD8B4052A01AEB8
:1001E20005D0001E011E002AD8B4012A01500510B4
:1001F2000A6E0ABE10D054DF0BB020D00DAE000C38
:10020200001E011E002AD8B4012A081E091E082A4F
:10021200D8B4092A000C05AE0DD001BE07D001509A
:10022200096E0050086E016A006AE8D7016A006A26
:10023200002A000C011E001E0B2ADDD7082AD8B4A2
:10024200092A0450085CD8A4D9D70550095CD8A45F
:10025200D5D7096A086A002AD8B4012A01AECED7D6
:060262000000FF0C120079
:10026800250E0001A86F000EA96FA4C0AAF0A5C0B2
:10027800ABF0A6C0ACF0000EAD6F3BDFA76BA6518C
:10028800A75D0EE2250EE96E000EEA6EA751E9267B
:10029800D8B0EA2AEECFA8F0F9DE0001A72BEFD7F5
:0202A800120042
:1002AA000B6A0A6A096A00500402F4CF09F0F3CF14
:1002BA0008F001500502F4CF0BF0F3CF0AF000501A
:1002CA000502F3500926F4500A22E86A0B2201506B
:1002DA000402F3500926F4500A22E86A0B2208C0E5
:1002EA0000F009C001F00AC002F00BC003F01200CE
:1002FA00030E006E000E016E52C004F0000E056E71
:10030A00CFDF540E0024E16E000E0120E26EAFC072
:10031A00E6FF030E006E000E016E52C004F0000EDE
:10032A00056EBEDF540E0026000E0122010E0024C7
:10033A00E16E000E0120E26EB0C0E6FF030E006E11
:10034A00000E016E52C004F0000E056EA9DF540EB5
:10035A000026000E0122020E0024E16E000E01208A
:10036A00E26EB1C0E6FF5250010F006E016A000E44
:10037A000122140E046E000E056E0EDF08C000F096
:10038A0009C001F000C052F05250531811E1535005
:10039A00010F006E016A000E0122140E046E000E97
:1003AA00056EFADE08C000F009C001F000C053F083
:0203BA0012002F
:1003BC00AECF01F0ABA202D0AB98AB8801C000F07D
:0203CC0012001D
:1003CE000001A06BA16B5350521801E18AD0030EAD
:1003DE00006E000E016E53C004F0000E056E5EDF5F
:1003EE00540E0026000E012200C0A2F001C0A3F0A0
:1003FE0052D0390EA46F000EA56F0E0EA66F2DDF14
:10040E005FD080CFA0F00F0E8214A16F0F0E841458
:10041E00036E040E026E03C000F0000E016E025059
:10042E0005E0003600900136FF0FFAD70050A113F9
:10043E00A00EA46F000EA56F020EA66F0EDF40D0A9
:10044E00030E006E000E016E53C004F0000E056E1A
:10045E0025DF540E0026000E0122010E0024E96E47
:10046E00000E0120EA6EEECF8AFF030E006E000E24
:10047E00016E53C004F0000E056E10DF540E002600
:10048E00000E0122020E0024E96E000E0120EA6E1B
:10049E00EECF8CFF15D0A2C0E9FFA3C0EAFFEE504D
:1004AE00000AA7E0A2C0E9FFA3C0EAFFEE50010ACE
:1004BE00A8E0A2C0E9FFA3C0EAFFEE50020AC0E026
:1004CE005350010F006E016A000E0122140E046ECD
:1004DE00000E056E5FDE08C000F009C001F000C01E
:0404EE0053F01200B5
:1004F2003BD0B886060EB06E820EAF6EAC8424DEA0
:100502004CD0B886030EB06E400EAF6EAC841CDECB
:1005120044D0B886010EB06EA00EAF6EAC8414DE6D
:100522003CD0B886B06ACF0EAF6EAC840DDE35D04B
:10053200B886B06A670EAF6EAC8406DE2ED0B8867F
:10054200B06A330EAF6EAC84FFDD27D0B886B06AD6
:10055200220EAF6EAC84F8DD20D0B886B06A100EE1
:10056200AF6EAC84F1DD19D00001A051000AC1E0E8
:10057200A051010AC6E0A051020ACBE0A051030A31
:10058200D0E0A051040AD4E0A051050AD8E0A0515D
:10059200060ADCE0A051070AE0E09E9A9D8A12005A
:1005A2000CDF00C0AEF010D00001AF6BB06BB16BCE
:1005B200A3DE14D0010E0001AF6FB06BB16B9CDEF5
:1005C2000DD0020E476E0AD00001AE51020AECE0D5
:1005D200AE51B90AEFE0AE51BA0AF3E047521DE05C
:1005E2000001AE51BA0A19E047500208006E016AD2
:1005F200000E015A480E0024E16E000E0120E26E48
:10060200AEC0E6FF47064750000A07E1020EAF6F91
:0E06120048C0B0F049C0B1F06FDE9E9A1200F1
:10062000D09EF28EF2BE02D0F29C01D0F28C526AC1
:0A06300052C053F0CCDEFED71200DA
:10063A000900F5CFE6FF0006FBE10106F9E1120029
:10064A00C06AC0CFC1FFC1CFC2FF0F01406B40CF0C
:10065A0041FF41CF42FF42CF78FF78CF79FF3C6B11
:10066A003CCF3BFF3BCF3AFF3ACF39FF39CF38FF78
:10067A008D6A8DCF8CFF8CCF8BFF8BCF8AFF8ACF71
:10068A0089FF89CF60FFFF0E966E96CF95FF95CFB3
:10069A0094FF94CF93FF93CF92FF956A95CF93FFE0
:1006AA00526A52C053F0030E0001A06F1DDF120000
:0A06BA0079EC03F0C5DFAFDFFFD7D6
:1006F20010EE25F02D0E006E010E016EC40EF66E88
:0E070200060EF76E000EF86E1DEC03F01200EE
:1006C4000000000000000000000000000000000026
:0406D4000000000022
:0E06D800534F333731352D31482E313130003C
:0106E6000013
:0A06E7000000000000000000000009
:020000040030CA
:0D00010023193CFF3D81FF0FC00FE00F40B1
:00000001FF
